{
  "_format": "hh-sol-artifact-1",
  "contractName": "CommitReveal",
  "sourceName": "contracts/CommitReveal.sol",
  "abi": [
    {
      "inputs": [
        {
          "internalType": "bytes32",
          "name": "hashedNumber",
          "type": "bytes32"
        }
      ],
      "name": "commit",
      "outputs": [],
      "stateMutability": "nonpayable",
      "type": "function"
    },
    {
      "inputs": [],
      "name": "generateRandomNumber",
      "outputs": [
        {
          "internalType": "uint256",
          "name": "",
          "type": "uint256"
        }
      ],
      "stateMutability": "view",
      "type": "function"
    },
    {
      "inputs": [
        {
          "internalType": "uint256",
          "name": "number",
          "type": "uint256"
        },
        {
          "internalType": "bytes32",
          "name": "secret",
          "type": "bytes32"
        }
      ],
      "name": "reveal",
      "outputs": [],
      "stateMutability": "nonpayable",
      "type": "function"
    }
  ],
  "bytecode": "0x608060405234801561001057600080fd5b50610612806100206000396000f3fe608060405234801561001057600080fd5b50600436106100415760003560e01c80634036778f14610046578063773a115414610062578063f14fcbc814610080575b600080fd5b610060600480360381019061005b919061038b565b61009c565b005b61006a6101d8565b60405161007791906103da565b60405180910390f35b61009a600480360381019061009591906103f5565b610251565b005b600082826040516020016100b1929190610464565b604051602081830303815290604052805190602001209050806000803373ffffffffffffffffffffffffffffffffffffffff1673ffffffffffffffffffffffffffffffffffffffff1681526020019081526020016000205414610149576040517f08c379a0000000000000000000000000000000000000000000000000000000008152600401610140906104ed565b60405180910390fd5b82600160003373ffffffffffffffffffffffffffffffffffffffff1673ffffffffffffffffffffffffffffffffffffffff168152602001908152602001600020819055506000801b6000803373ffffffffffffffffffffffffffffffffffffffff1673ffffffffffffffffffffffffffffffffffffffff16815260200190815260200160002081905550505050565b6000804244600160003373ffffffffffffffffffffffffffffffffffffffff1673ffffffffffffffffffffffffffffffffffffffff1681526020019081526020016000205460405160200161022f9392919061050d565b6040516020818303038152906040528051906020012060001c90508091505090565b6000801b6000803373ffffffffffffffffffffffffffffffffffffffff1673ffffffffffffffffffffffffffffffffffffffff16815260200190815260200160002054146102d4576040517f08c379a00000000000000000000000000000000000000000000000000000000081526004016102cb906105bc565b60405180910390fd5b806000803373ffffffffffffffffffffffffffffffffffffffff1673ffffffffffffffffffffffffffffffffffffffff1681526020019081526020016000208190555050565b600080fd5b6000819050919050565b6103328161031f565b811461033d57600080fd5b50565b60008135905061034f81610329565b92915050565b6000819050919050565b61036881610355565b811461037357600080fd5b50565b6000813590506103858161035f565b92915050565b600080604083850312156103a2576103a161031a565b5b60006103b085828601610340565b92505060206103c185828601610376565b9150509250929050565b6103d48161031f565b82525050565b60006020820190506103ef60008301846103cb565b92915050565b60006020828403121561040b5761040a61031a565b5b600061041984828501610376565b91505092915050565b6000819050919050565b61043d6104388261031f565b610422565b82525050565b6000819050919050565b61045e61045982610355565b610443565b82525050565b6000610470828561042c565b602082019150610480828461044d565b6020820191508190509392505050565b600082825260208201905092915050565b7f496e76616c6964206e756d626572206f72207365637265742e00000000000000600082015250565b60006104d7601983610490565b91506104e2826104a1565b602082019050919050565b60006020820190508181036000830152610506816104ca565b9050919050565b6000610519828661042c565b602082019150610529828561042c565b602082019150610539828461042c565b602082019150819050949350505050565b7f596f75206861766520616c726561647920636f6d6d69747465642061206e756d60008201527f6265722e00000000000000000000000000000000000000000000000000000000602082015250565b60006105a6602483610490565b91506105b18261054a565b604082019050919050565b600060208201905081810360008301526105d581610599565b905091905056fea2646970667358221220cb6cb554778433997803c33e0fe592ae01e70f04379137bffb39f16f79a91fb564736f6c63430008130033",
  "linkReferences": {},
  "deployedLinkReferences": {}
}